{
  "contractName": "USersFeatures",
  "abi": [
    {
      "inputs": [],
      "stateMutability": "nonpayable",
      "type": "constructor"
    },
    {
      "anonymous": false,
      "inputs": [
        {
          "indexed": false,
          "internalType": "address",
          "name": "_beneficiary",
          "type": "address"
        },
        {
          "indexed": false,
          "internalType": "string",
          "name": "name",
          "type": "string"
        }
      ],
      "name": "BeneficiaryAdded",
      "type": "event"
    },
    {
      "anonymous": false,
      "inputs": [
        {
          "indexed": false,
          "internalType": "string",
          "name": "_name",
          "type": "string"
        },
        {
          "indexed": false,
          "internalType": "uint256",
          "name": "_quantity",
          "type": "uint256"
        },
        {
          "indexed": false,
          "internalType": "string",
          "name": "foodType",
          "type": "string"
        },
        {
          "indexed": false,
          "internalType": "address",
          "name": "sender",
          "type": "address"
        }
      ],
      "name": "FoodItemAdded",
      "type": "event"
    },
    {
      "inputs": [
        {
          "internalType": "address",
          "name": "",
          "type": "address"
        },
        {
          "internalType": "uint256",
          "name": "",
          "type": "uint256"
        }
      ],
      "name": "beneficiaryFoodItems",
      "outputs": [
        {
          "internalType": "string",
          "name": "",
          "type": "string"
        }
      ],
      "stateMutability": "view",
      "type": "function"
    },
    {
      "inputs": [
        {
          "internalType": "uint256",
          "name": "",
          "type": "uint256"
        }
      ],
      "name": "foodItemNames",
      "outputs": [
        {
          "internalType": "string",
          "name": "",
          "type": "string"
        }
      ],
      "stateMutability": "view",
      "type": "function"
    },
    {
      "inputs": [],
      "name": "owner",
      "outputs": [
        {
          "internalType": "address",
          "name": "",
          "type": "address"
        }
      ],
      "stateMutability": "view",
      "type": "function"
    },
    {
      "inputs": [
        {
          "internalType": "address",
          "name": "_beneficiary",
          "type": "address"
        },
        {
          "internalType": "string",
          "name": "_name",
          "type": "string"
        }
      ],
      "name": "addBeneficiary",
      "outputs": [],
      "stateMutability": "nonpayable",
      "type": "function"
    },
    {
      "inputs": [
        {
          "internalType": "string",
          "name": "_name",
          "type": "string"
        },
        {
          "internalType": "uint256",
          "name": "_quantity",
          "type": "uint256"
        },
        {
          "internalType": "string",
          "name": "foodType",
          "type": "string"
        }
      ],
      "name": "addFoodItem",
      "outputs": [],
      "stateMutability": "nonpayable",
      "type": "function"
    },
    {
      "inputs": [
        {
          "internalType": "address",
          "name": "beneficiary",
          "type": "address"
        }
      ],
      "name": "viewRationAllotment",
      "outputs": [
        {
          "components": [
            {
              "internalType": "string",
              "name": "name",
              "type": "string"
            },
            {
              "internalType": "uint256",
              "name": "quantity",
              "type": "uint256"
            },
            {
              "internalType": "string",
              "name": "foodType",
              "type": "string"
            },
            {
              "internalType": "address",
              "name": "producer",
              "type": "address"
            }
          ],
          "internalType": "struct USersFeatures.Food[]",
          "name": "",
          "type": "tuple[]"
        }
      ],
      "stateMutability": "view",
      "type": "function"
    },
    {
      "inputs": [
        {
          "internalType": "address",
          "name": "beneficiary",
          "type": "address"
        },
        {
          "internalType": "uint256",
          "name": "newQuantity",
          "type": "uint256"
        },
        {
          "internalType": "string",
          "name": "foodType",
          "type": "string"
        }
      ],
      "name": "updateRationAllotment",
      "outputs": [],
      "stateMutability": "nonpayable",
      "type": "function"
    },
    {
      "inputs": [
        {
          "internalType": "address",
          "name": "beneficiary",
          "type": "address"
        },
        {
          "internalType": "string[]",
          "name": "_foodItemNames",
          "type": "string[]"
        }
      ],
      "name": "assignFoodItems",
      "outputs": [],
      "stateMutability": "nonpayable",
      "type": "function"
    }
  ],
  "bytecode": "0x608060405234801561001057600080fd5b50336000806101000a81548173ffffffffffffffffffffffffffffffffffffffff021916908373ffffffffffffffffffffffffffffffffffffffff160217905550611f32806100606000396000f3fe608060405234801561001057600080fd5b50600436106100885760003560e01c80638449dd581161005b5780638449dd58146101255780638da5cb5b1461015557806390b4f5cc14610173578063ec2875581461018f57610088565b806332b578e51461008d57806362de34cf146100a95780637667d2d1146100d95780637c7a007d14610109575b600080fd5b6100a760048036038101906100a29190611182565b6101ab565b005b6100c360048036038101906100be9190611214565b61043a565b6040516100d091906112c0565b60405180910390f35b6100f360048036038101906100ee91906112e2565b6104e6565b60405161010091906112c0565b60405180910390f35b610123600480360381019061011e9190611322565b61059f565b005b61013f600480360381019061013a9190611391565b6106ee565b60405161014c9190611552565b60405180910390f35b61015d610a36565b60405161016a9190611583565b60405180910390f35b61018d6004803603810190610188919061159e565b610a5a565b005b6101a960048036038101906101a4919061170f565b610c98565b005b60008054906101000a900473ffffffffffffffffffffffffffffffffffffffff1673ffffffffffffffffffffffffffffffffffffffff163373ffffffffffffffffffffffffffffffffffffffff1614610239576040517f08c379a0000000000000000000000000000000000000000000000000000000008152600401610230906117dd565b60405180910390fd5b600073ffffffffffffffffffffffffffffffffffffffff16600360008473ffffffffffffffffffffffffffffffffffffffff1673ffffffffffffffffffffffffffffffffffffffff16815260200190815260200160002060010160009054906101000a900473ffffffffffffffffffffffffffffffffffffffff1673ffffffffffffffffffffffffffffffffffffffff161461030a576040517f08c379a000000000000000000000000000000000000000000000000000000000815260040161030190611849565b60405180910390fd5b60405180606001604052808281526020018373ffffffffffffffffffffffffffffffffffffffff16815260200160011515815250600360008473ffffffffffffffffffffffffffffffffffffffff1673ffffffffffffffffffffffffffffffffffffffff16815260200190815260200160002060008201518160000190816103929190611a75565b5060208201518160010160006101000a81548173ffffffffffffffffffffffffffffffffffffffff021916908373ffffffffffffffffffffffffffffffffffffffff16021790555060408201518160010160146101000a81548160ff0219169083151502179055509050507fbd793e14f2ef74a7a875db560b865f09db4c686288570de877a4c9c33e6dae47828260405161042e929190611b47565b60405180910390a15050565b6001818154811061044a57600080fd5b90600052602060002001600091509050805461046590611898565b80601f016020809104026020016040519081016040528092919081815260200182805461049190611898565b80156104de5780601f106104b3576101008083540402835291602001916104de565b820191906000526020600020905b8154815290600101906020018083116104c157829003601f168201915b505050505081565b6004602052816000526040600020818154811061050257600080fd5b9060005260206000200160009150915050805461051e90611898565b80601f016020809104026020016040519081016040528092919081815260200182805461054a90611898565b80156105975780601f1061056c57610100808354040283529160200191610597565b820191906000526020600020905b81548152906001019060200180831161057a57829003601f168201915b505050505081565b60008054906101000a900473ffffffffffffffffffffffffffffffffffffffff1673ffffffffffffffffffffffffffffffffffffffff163373ffffffffffffffffffffffffffffffffffffffff161461062d576040517f08c379a0000000000000000000000000000000000000000000000000000000008152600401610624906117dd565b60405180910390fd5b60011515600360008573ffffffffffffffffffffffffffffffffffffffff1673ffffffffffffffffffffffffffffffffffffffff16815260200190815260200160002060010160149054906101000a900460ff161515146106c3576040517f08c379a00000000000000000000000000000000000000000000000000000000081526004016106ba90611bc3565b60405180910390fd5b816002826040516106d49190611c1f565b908152602001604051809103902060010181905550505050565b606060011515600360008473ffffffffffffffffffffffffffffffffffffffff1673ffffffffffffffffffffffffffffffffffffffff16815260200190815260200160002060010160149054906101000a900460ff16151514610786576040517f08c379a000000000000000000000000000000000000000000000000000000000815260040161077d90611bc3565b60405180910390fd5b6000600180549050905060008167ffffffffffffffff8111156107ac576107ab611057565b5b6040519080825280602002602001820160405280156107e557816020015b6107d2610eb2565b8152602001906001900390816107ca5790505b50905060005b82811015610a2b576002600460008773ffffffffffffffffffffffffffffffffffffffff1673ffffffffffffffffffffffffffffffffffffffff168152602001908152602001600020828154811061084657610845611c36565b5b9060005260206000200160405161085d9190611ce8565b908152602001604051809103902060405180608001604052908160008201805461088690611898565b80601f01602080910402602001604051908101604052809291908181526020018280546108b290611898565b80156108ff5780601f106108d4576101008083540402835291602001916108ff565b820191906000526020600020905b8154815290600101906020018083116108e257829003601f168201915b505050505081526020016001820154815260200160028201805461092290611898565b80601f016020809104026020016040519081016040528092919081815260200182805461094e90611898565b801561099b5780601f106109705761010080835404028352916020019161099b565b820191906000526020600020905b81548152906001019060200180831161097e57829003601f168201915b505050505081526020016003820160009054906101000a900473ffffffffffffffffffffffffffffffffffffffff1673ffffffffffffffffffffffffffffffffffffffff1673ffffffffffffffffffffffffffffffffffffffff1681525050828281518110610a0d57610a0c611c36565b5b60200260200101819052508080610a2390611d2e565b9150506107eb565b508092505050919050565b60008054906101000a900473ffffffffffffffffffffffffffffffffffffffff1681565b60008054906101000a900473ffffffffffffffffffffffffffffffffffffffff1673ffffffffffffffffffffffffffffffffffffffff163373ffffffffffffffffffffffffffffffffffffffff1614610ae8576040517f08c379a0000000000000000000000000000000000000000000000000000000008152600401610adf906117dd565b60405180910390fd5b6000600284604051610afa9190611c1f565b90815260200160405180910390206001015414610b4c576040517f08c379a0000000000000000000000000000000000000000000000000000000008152600401610b4390611de8565b60405180910390fd5b60405180608001604052808481526020018381526020018281526020013373ffffffffffffffffffffffffffffffffffffffff16815250600284604051610b939190611c1f565b90815260200160405180910390206000820151816000019081610bb69190611a75565b50602082015181600101556040820151816002019081610bd69190611a75565b5060608201518160030160006101000a81548173ffffffffffffffffffffffffffffffffffffffff021916908373ffffffffffffffffffffffffffffffffffffffff160217905550905050600183908060018154018082558091505060019003906000526020600020016000909190919091509081610c559190611a75565b507fafaac45646c5fd33a9012a1ede8df0617e5dae7579cc320a6965cbd8fac1c19a83838333604051610c8b9493929190611e17565b60405180910390a1505050565b60008054906101000a900473ffffffffffffffffffffffffffffffffffffffff1673ffffffffffffffffffffffffffffffffffffffff163373ffffffffffffffffffffffffffffffffffffffff1614610d26576040517f08c379a0000000000000000000000000000000000000000000000000000000008152600401610d1d906117dd565b60405180910390fd5b60011515600360008473ffffffffffffffffffffffffffffffffffffffff1673ffffffffffffffffffffffffffffffffffffffff16815260200190815260200160002060010160149054906101000a900460ff16151514610dbc576040517f08c379a0000000000000000000000000000000000000000000000000000000008152600401610db390611bc3565b60405180910390fd5b60005b8151811015610e595760006002838381518110610ddf57610dde611c36565b5b6020026020010151604051610df49190611c1f565b90815260200160405180910390206001015411610e46576040517f08c379a0000000000000000000000000000000000000000000000000000000008152600401610e3d90611edc565b60405180910390fd5b8080610e5190611d2e565b915050610dbf565b5080600460008473ffffffffffffffffffffffffffffffffffffffff1673ffffffffffffffffffffffffffffffffffffffff1681526020019081526020016000209080519060200190610ead929190610ef0565b505050565b6040518060800160405280606081526020016000815260200160608152602001600073ffffffffffffffffffffffffffffffffffffffff1681525090565b828054828255906000526020600020908101928215610f38579160200282015b82811115610f37578251829081610f279190611a75565b5091602001919060010190610f10565b5b509050610f459190610f49565b5090565b5b80821115610f695760008181610f609190610f6d565b50600101610f4a565b5090565b508054610f7990611898565b6000825580601f10610f8b5750610faa565b601f016020900490600052602060002090810190610fa99190610fad565b5b50565b5b80821115610fc6576000816000905550600101610fae565b5090565b6000604051905090565b600080fd5b600080fd5b600073ffffffffffffffffffffffffffffffffffffffff82169050919050565b600061100982610fde565b9050919050565b61101981610ffe565b811461102457600080fd5b50565b60008135905061103681611010565b92915050565b600080fd5b600080fd5b6000601f19601f8301169050919050565b7f4e487b7100000000000000000000000000000000000000000000000000000000600052604160045260246000fd5b61108f82611046565b810181811067ffffffffffffffff821117156110ae576110ad611057565b5b80604052505050565b60006110c1610fca565b90506110cd8282611086565b919050565b600067ffffffffffffffff8211156110ed576110ec611057565b5b6110f682611046565b9050602081019050919050565b82818337600083830152505050565b6000611125611120846110d2565b6110b7565b90508281526020810184848401111561114157611140611041565b5b61114c848285611103565b509392505050565b600082601f8301126111695761116861103c565b5b8135611179848260208601611112565b91505092915050565b6000806040838503121561119957611198610fd4565b5b60006111a785828601611027565b925050602083013567ffffffffffffffff8111156111c8576111c7610fd9565b5b6111d485828601611154565b9150509250929050565b6000819050919050565b6111f1816111de565b81146111fc57600080fd5b50565b60008135905061120e816111e8565b92915050565b60006020828403121561122a57611229610fd4565b5b6000611238848285016111ff565b91505092915050565b600081519050919050565b600082825260208201905092915050565b60005b8381101561127b578082015181840152602081019050611260565b60008484015250505050565b600061129282611241565b61129c818561124c565b93506112ac81856020860161125d565b6112b581611046565b840191505092915050565b600060208201905081810360008301526112da8184611287565b905092915050565b600080604083850312156112f9576112f8610fd4565b5b600061130785828601611027565b9250506020611318858286016111ff565b9150509250929050565b60008060006060848603121561133b5761133a610fd4565b5b600061134986828701611027565b935050602061135a868287016111ff565b925050604084013567ffffffffffffffff81111561137b5761137a610fd9565b5b61138786828701611154565b9150509250925092565b6000602082840312156113a7576113a6610fd4565b5b60006113b584828501611027565b91505092915050565b600081519050919050565b600082825260208201905092915050565b6000819050602082019050919050565b600082825260208201905092915050565b600061140682611241565b61141081856113ea565b935061142081856020860161125d565b61142981611046565b840191505092915050565b61143d816111de565b82525050565b61144c81610ffe565b82525050565b6000608083016000830151848203600086015261146f82826113fb565b91505060208301516114846020860182611434565b506040830151848203604086015261149c82826113fb565b91505060608301516114b16060860182611443565b508091505092915050565b60006114c88383611452565b905092915050565b6000602082019050919050565b60006114e8826113be565b6114f281856113c9565b935083602082028501611504856113da565b8060005b85811015611540578484038952815161152185826114bc565b945061152c836114d0565b925060208a01995050600181019050611508565b50829750879550505050505092915050565b6000602082019050818103600083015261156c81846114dd565b905092915050565b61157d81610ffe565b82525050565b60006020820190506115986000830184611574565b92915050565b6000806000606084860312156115b7576115b6610fd4565b5b600084013567ffffffffffffffff8111156115d5576115d4610fd9565b5b6115e186828701611154565b93505060206115f2868287016111ff565b925050604084013567ffffffffffffffff81111561161357611612610fd9565b5b61161f86828701611154565b9150509250925092565b600067ffffffffffffffff82111561164457611643611057565b5b602082029050602081019050919050565b600080fd5b600061166d61166884611629565b6110b7565b905080838252602082019050602084028301858111156116905761168f611655565b5b835b818110156116d757803567ffffffffffffffff8111156116b5576116b461103c565b5b8086016116c28982611154565b85526020850194505050602081019050611692565b5050509392505050565b600082601f8301126116f6576116f561103c565b5b813561170684826020860161165a565b91505092915050565b6000806040838503121561172657611725610fd4565b5b600061173485828601611027565b925050602083013567ffffffffffffffff81111561175557611754610fd9565b5b611761858286016116e1565b9150509250929050565b7f4f6e6c792074686520636f6e7472616374206f776e65722063616e207065726660008201527f6f726d207468697320616374696f6e0000000000000000000000000000000000602082015250565b60006117c7602f8361124c565b91506117d28261176b565b604082019050919050565b600060208201905081810360008301526117f6816117ba565b9050919050565b7f42656e656669636961727920616c726561647920657869737473000000000000600082015250565b6000611833601a8361124c565b915061183e826117fd565b602082019050919050565b6000602082019050818103600083015261186281611826565b9050919050565b7f4e487b7100000000000000000000000000000000000000000000000000000000600052602260045260246000fd5b600060028204905060018216806118b057607f821691505b6020821081036118c3576118c2611869565b5b50919050565b60008190508160005260206000209050919050565b60006020601f8301049050919050565b600082821b905092915050565b60006008830261192b7fffffffffffffffffffffffffffffffffffffffffffffffffffffffffffffffff826118ee565b61193586836118ee565b95508019841693508086168417925050509392505050565b6000819050919050565b600061197261196d611968846111de565b61194d565b6111de565b9050919050565b6000819050919050565b61198c83611957565b6119a061199882611979565b8484546118fb565b825550505050565b600090565b6119b56119a8565b6119c0818484611983565b505050565b5b818110156119e4576119d96000826119ad565b6001810190506119c6565b5050565b601f821115611a29576119fa816118c9565b611a03846118de565b81016020851015611a12578190505b611a26611a1e856118de565b8301826119c5565b50505b505050565b600082821c905092915050565b6000611a4c60001984600802611a2e565b1980831691505092915050565b6000611a658383611a3b565b9150826002028217905092915050565b611a7e82611241565b67ffffffffffffffff811115611a9757611a96611057565b5b611aa18254611898565b611aac8282856119e8565b600060209050601f831160018114611adf5760008415611acd578287015190505b611ad78582611a59565b865550611b3f565b601f198416611aed866118c9565b60005b82811015611b1557848901518255600182019150602085019450602081019050611af0565b86831015611b325784890151611b2e601f891682611a3b565b8355505b6001600288020188555050505b505050505050565b6000604082019050611b5c6000830185611574565b8181036020830152611b6e8184611287565b90509392505050565b7f42656e6566696369617279206e6f7420617574686f72697a6564000000000000600082015250565b6000611bad601a8361124c565b9150611bb882611b77565b602082019050919050565b60006020820190508181036000830152611bdc81611ba0565b9050919050565b600081905092915050565b6000611bf982611241565b611c038185611be3565b9350611c1381856020860161125d565b80840191505092915050565b6000611c2b8284611bee565b915081905092915050565b7f4e487b7100000000000000000000000000000000000000000000000000000000600052603260045260246000fd5b60008154611c7281611898565b611c7c8186611be3565b94506001821660008114611c975760018114611cac57611cdf565b60ff1983168652811515820286019350611cdf565b611cb5856118c9565b60005b83811015611cd757815481890152600182019150602081019050611cb8565b838801955050505b50505092915050565b6000611cf48284611c65565b915081905092915050565b7f4e487b7100000000000000000000000000000000000000000000000000000000600052601160045260246000fd5b6000611d39826111de565b91507fffffffffffffffffffffffffffffffffffffffffffffffffffffffffffffffff8203611d6b57611d6a611cff565b5b600182019050919050565b7f4120666f6f64206974656d20776974682074686973206e616d6520616c72656160008201527f6479206578697374732e00000000000000000000000000000000000000000000602082015250565b6000611dd2602a8361124c565b9150611ddd82611d76565b604082019050919050565b60006020820190508181036000830152611e0181611dc5565b9050919050565b611e11816111de565b82525050565b60006080820190508181036000830152611e318187611287565b9050611e406020830186611e08565b8181036040830152611e528185611287565b9050611e616060830184611574565b95945050505050565b7f4f6e65206f72206d6f726520466f6f64206974656d7320617265206e6f74206160008201527f7661696c61626c6520696e20696e76656e746f72792e00000000000000000000602082015250565b6000611ec660368361124c565b9150611ed182611e6a565b604082019050919050565b60006020820190508181036000830152611ef581611eb9565b905091905056fea26469706673582212205c3f1d9d306d3596a03c7933c2b0f6e2bf3047b263c55bac6b984786c0c8251e64736f6c63430008110033",
  "immutableReferences": {},
  "source": "// SPDX-License-Identifier: MIT\r\npragma solidity ^0.8.0;\r\n\r\ncontract USersFeatures{\r\n// THis will be the list of the item that are there inventory \r\n\r\naddress public owner ; // This will store the address of the owner of the contract ;\r\n     \r\n  constructor() {\r\n    // authorizedUsers[owner] = true;\r\n    owner = msg.sender;\r\n  }\r\n   // this willl determine what tyoe of food we are storing and the address of the producer;\r\n  struct Food {\r\n    string name; \r\n    uint256 quantity;\r\n    string foodType;\r\n    address producer;\r\n  }\r\n  string[] public foodItemNames;\r\n   // This will be the Benefeciary's data that is whether they are authorised or not will bbe mentioned by certain memebers of the government\r\n  struct Beneficiary {\r\n    string _name;\r\n    address _theiraddress;\r\n    bool authorization;   \r\n  }\r\n \r\n  event BeneficiaryAdded(address _beneficiary, string name);\r\n  event FoodItemAdded(string _name , uint _quantity, string foodType , address sender);\r\n \r\n  modifier onlyOwner() {  //Only Owner \r\n        require(msg.sender == owner, \"Only the contract owner can perform this action\");\r\n        _;\r\n    }\r\n\r\n  mapping(string => Food) foodItems; // we can map the foodname as the key and the particular fooditem as its value \r\n  mapping(address => Beneficiary) beneficiaries; // we can map the benefeciaries to their address;\r\n  mapping(address => string[]) public beneficiaryFoodItems; // This will keep the track of the all the foodItems that have been assigned to the benefeciary \r\n \r\n\r\n  function addBeneficiary(address _beneficiary, string memory _name) public onlyOwner {\r\n    require(beneficiaries[_beneficiary]._theiraddress == address(0), \"Beneficiary already exists\");\r\n    beneficiaries[_beneficiary] = Beneficiary(_name, _beneficiary, true); \r\n    emit BeneficiaryAdded(_beneficiary, _name);\r\n  }\r\n  \r\n  function addFoodItem(string memory _name, uint256 _quantity, string memory foodType) public onlyOwner {\r\n    require(foodItems[_name].quantity == 0, \"A food item with this name already exists.\");\r\n    foodItems[_name] = Food(_name, _quantity, foodType, msg.sender);\r\n    foodItemNames.push(_name);\r\n    emit FoodItemAdded(_name, _quantity, foodType , msg.sender);\r\n  }\r\n\r\n  function viewRationAllotment(address beneficiary) public view returns(Food[] memory){\r\n    require(beneficiaries[beneficiary].authorization == true, \"Beneficiary not authorized\");\r\n    uint length = foodItemNames.length;\r\n    Food[] memory allotedFood = new Food[](length);\r\n    for(uint i = 0 ; i < length; i++){\r\n      allotedFood[i] =  foodItems[beneficiaryFoodItems[beneficiary][i]]; // THis will check for all the foodITems that have been assigned to the beneficiary untill now \r\n    } \r\n    return allotedFood;\r\n  }\r\n\r\n  function updateRationAllotment(address beneficiary, uint256 newQuantity, string memory foodType) public onlyOwner{\r\n    require(beneficiaries[beneficiary].authorization == true, \"Beneficiary not authorized\");\r\n    foodItems[foodType].quantity = newQuantity;\r\n  }\r\n\r\n  function assignFoodItems(address beneficiary, string[] memory _foodItemNames) public onlyOwner {\r\n    require(beneficiaries[beneficiary].authorization == true, \"Beneficiary not authorized\");\r\n    for (uint i = 0 ; i < _foodItemNames.length; i++){\r\n      require(foodItems[_foodItemNames[i]].quantity > 0, \"One or more Food items are not available in inventory.\");\r\n    }\r\n    beneficiaryFoodItems[beneficiary] = _foodItemNames;\r\n  }\r\n}\r\n",
  "sourcePath": "C:\\Users\\Rudransh Singh Tomar\\OneDrive - BENNETT UNIVERSITY\\Desktop\\Btech\\SEM 4\\Design Thinking and Innovation\\RationDOT-2\\contracts\\RationDot.sol",
  "compiler": {
    "name": "solc",
    "version": "0.8.17+commit.8df45f5f.Emscripten.clang"
  },
  "schemaVersion": "3.4.11",
  "updatedAt": "2023-03-29T12:53:55.749Z",
  "devdoc": {
    "kind": "dev",
    "methods": {},
    "version": 1
  },
  "userdoc": {
    "kind": "user",
    "methods": {},
    "version": 1
  }
}